{
  "contractName": "Transactions",
  "abi": [
    {
      "anonymous": false,
      "inputs": [
        {
          "indexed": false,
          "internalType": "address",
          "name": "from",
          "type": "address"
        },
        {
          "indexed": false,
          "internalType": "address",
          "name": "receiver",
          "type": "address"
        },
        {
          "indexed": false,
          "internalType": "uint256",
          "name": "amount",
          "type": "uint256"
        },
        {
          "indexed": false,
          "internalType": "string",
          "name": "message",
          "type": "string"
        },
        {
          "indexed": false,
          "internalType": "uint256",
          "name": "timestamp",
          "type": "uint256"
        },
        {
          "indexed": false,
          "internalType": "string",
          "name": "keyword",
          "type": "string"
        }
      ],
      "name": "Transfer",
      "type": "event"
    },
    {
      "inputs": [
        {
          "internalType": "address payable",
          "name": "receiver",
          "type": "address"
        },
        {
          "internalType": "uint256",
          "name": "amount",
          "type": "uint256"
        },
        {
          "internalType": "string",
          "name": "message",
          "type": "string"
        },
        {
          "internalType": "string",
          "name": "keyword",
          "type": "string"
        }
      ],
      "name": "addToBlockChain",
      "outputs": [],
      "stateMutability": "nonpayable",
      "type": "function"
    },
    {
      "inputs": [],
      "name": "getAllTrans",
      "outputs": [
        {
          "components": [
            {
              "internalType": "address",
              "name": "sender",
              "type": "address"
            },
            {
              "internalType": "address",
              "name": "receiver",
              "type": "address"
            },
            {
              "internalType": "uint256",
              "name": "amount",
              "type": "uint256"
            },
            {
              "internalType": "string",
              "name": "message",
              "type": "string"
            },
            {
              "internalType": "uint256",
              "name": "timestamp",
              "type": "uint256"
            },
            {
              "internalType": "string",
              "name": "keyword",
              "type": "string"
            }
          ],
          "internalType": "struct Transactions.TransferStruct[]",
          "name": "",
          "type": "tuple[]"
        }
      ],
      "stateMutability": "view",
      "type": "function",
      "constant": true
    },
    {
      "inputs": [],
      "name": "getCountTrans",
      "outputs": [
        {
          "internalType": "uint256",
          "name": "",
          "type": "uint256"
        }
      ],
      "stateMutability": "view",
      "type": "function",
      "constant": true
    }
  ],
  "bytecode": "0x608060405234801561001057600080fd5b50610c74806100206000396000f3fe608060405234801561001057600080fd5b50600436106100415760003560e01c80632cc34860146100465780635579040414610064578063b2da096014610082575b600080fd5b61004e61009e565b60405161005b9190610568565b60405180910390f35b61006c6100a7565b60405161007991906107be565b60405180910390f35b61009c60048036038101906100979190610993565b6102ea565b005b60008054905090565b60606001805480602002602001604051908101604052809291908181526020016000905b828210156102e157838290600052602060002090600602016040518060c00160405290816000820160009054906101000a900473ffffffffffffffffffffffffffffffffffffffff1673ffffffffffffffffffffffffffffffffffffffff1673ffffffffffffffffffffffffffffffffffffffff1681526020016001820160009054906101000a900473ffffffffffffffffffffffffffffffffffffffff1673ffffffffffffffffffffffffffffffffffffffff1673ffffffffffffffffffffffffffffffffffffffff168152602001600282015481526020016003820180546101b490610a61565b80601f01602080910402602001604051908101604052809291908181526020018280546101e090610a61565b801561022d5780601f106102025761010080835404028352916020019161022d565b820191906000526020600020905b81548152906001019060200180831161021057829003601f168201915b505050505081526020016004820154815260200160058201805461025090610a61565b80601f016020809104026020016040519081016040528092919081815260200182805461027c90610a61565b80156102c95780601f1061029e576101008083540402835291602001916102c9565b820191906000526020600020905b8154815290600101906020018083116102ac57829003601f168201915b505050505081525050815260200190600101906100cb565b50505050905090565b60016000808282546102fc9190610ac1565b9250508190555060016040518060c001604052803373ffffffffffffffffffffffffffffffffffffffff1681526020018673ffffffffffffffffffffffffffffffffffffffff16815260200185815260200184815260200142815260200183815250908060018154018082558091505060019003906000526020600020906006020160009091909190915060008201518160000160006101000a81548173ffffffffffffffffffffffffffffffffffffffff021916908373ffffffffffffffffffffffffffffffffffffffff16021790555060208201518160010160006101000a81548173ffffffffffffffffffffffffffffffffffffffff021916908373ffffffffffffffffffffffffffffffffffffffff16021790555060408201518160020155606082015181600301908051906020019061043b9291906104ac565b506080820151816004015560a08201518160050190805190602001906104629291906104ac565b5050507f416cfa4330a4565f45c2fd2dd4826a83a37443aba2ce6f79477c7355afac35fa33858585428660405161049e96959493929190610bcf565b60405180910390a150505050565b8280546104b890610a61565b90600052602060002090601f0160209004810192826104da5760008555610521565b82601f106104f357805160ff1916838001178555610521565b82800160010185558215610521579182015b82811115610520578251825591602001919060010190610505565b5b50905061052e9190610532565b5090565b5b8082111561054b576000816000905550600101610533565b5090565b6000819050919050565b6105628161054f565b82525050565b600060208201905061057d6000830184610559565b92915050565b600081519050919050565b600082825260208201905092915050565b6000819050602082019050919050565b600073ffffffffffffffffffffffffffffffffffffffff82169050919050565b60006105da826105af565b9050919050565b6105ea816105cf565b82525050565b6105f98161054f565b82525050565b600081519050919050565b600082825260208201905092915050565b60005b8381101561063957808201518184015260208101905061061e565b83811115610648576000848401525b50505050565b6000601f19601f8301169050919050565b600061066a826105ff565b610674818561060a565b935061068481856020860161061b565b61068d8161064e565b840191505092915050565b600060c0830160008301516106b060008601826105e1565b5060208301516106c360208601826105e1565b5060408301516106d660408601826105f0565b50606083015184820360608601526106ee828261065f565b915050608083015161070360808601826105f0565b5060a083015184820360a086015261071b828261065f565b9150508091505092915050565b60006107348383610698565b905092915050565b6000602082019050919050565b600061075482610583565b61075e818561058e565b9350836020820285016107708561059f565b8060005b858110156107ac578484038952815161078d8582610728565b94506107988361073c565b925060208a01995050600181019050610774565b50829750879550505050505092915050565b600060208201905081810360008301526107d88184610749565b905092915050565b6000604051905090565b600080fd5b600080fd5b60006107ff826105af565b9050919050565b61080f816107f4565b811461081a57600080fd5b50565b60008135905061082c81610806565b92915050565b61083b8161054f565b811461084657600080fd5b50565b60008135905061085881610832565b92915050565b600080fd5b600080fd5b7f4e487b7100000000000000000000000000000000000000000000000000000000600052604160045260246000fd5b6108a08261064e565b810181811067ffffffffffffffff821117156108bf576108be610868565b5b80604052505050565b60006108d26107e0565b90506108de8282610897565b919050565b600067ffffffffffffffff8211156108fe576108fd610868565b5b6109078261064e565b9050602081019050919050565b82818337600083830152505050565b6000610936610931846108e3565b6108c8565b90508281526020810184848401111561095257610951610863565b5b61095d848285610914565b509392505050565b600082601f83011261097a5761097961085e565b5b813561098a848260208601610923565b91505092915050565b600080600080608085870312156109ad576109ac6107ea565b5b60006109bb8782880161081d565b94505060206109cc87828801610849565b935050604085013567ffffffffffffffff8111156109ed576109ec6107ef565b5b6109f987828801610965565b925050606085013567ffffffffffffffff811115610a1a57610a196107ef565b5b610a2687828801610965565b91505092959194509250565b7f4e487b7100000000000000000000000000000000000000000000000000000000600052602260045260246000fd5b60006002820490506001821680610a7957607f821691505b602082108103610a8c57610a8b610a32565b5b50919050565b7f4e487b7100000000000000000000000000000000000000000000000000000000600052601160045260246000fd5b6000610acc8261054f565b9150610ad78361054f565b9250827fffffffffffffffffffffffffffffffffffffffffffffffffffffffffffffffff03821115610b0c57610b0b610a92565b5b828201905092915050565b610b20816105cf565b82525050565b6000819050919050565b6000610b4b610b46610b41846105af565b610b26565b6105af565b9050919050565b6000610b5d82610b30565b9050919050565b6000610b6f82610b52565b9050919050565b610b7f81610b64565b82525050565b600082825260208201905092915050565b6000610ba1826105ff565b610bab8185610b85565b9350610bbb81856020860161061b565b610bc48161064e565b840191505092915050565b600060c082019050610be46000830189610b17565b610bf16020830188610b76565b610bfe6040830187610559565b8181036060830152610c108186610b96565b9050610c1f6080830185610559565b81810360a0830152610c318184610b96565b905097965050505050505056fea2646970667358221220f68671bef48df783f7ad81451ea4cb5a7f7540c617144458000ae53d0fc7e33764736f6c634300080d0033",
  "immutableReferences": {},
  "source": "//SPDX-License-Identifier: UNLICENSED\npragma solidity >=0.4.22 <0.9.0;\n\ncontract Transactions {\n    uint256 transactionCount;\n\n    event Transfer(address from, address receiver, uint amount, string message, uint256 timestamp, string keyword);\n\n    struct TransferStruct {\n        address sender;\n        address receiver;\n        uint amount;\n        string message;\n        uint256 timestamp;\n        string keyword;\n    }\n\n    TransferStruct[] transactions;\n\n    function addToBlockChain(address payable receiver, uint amount, string memory message, string memory keyword) public {\n        transactionCount +=1;\n        transactions.push(TransferStruct(msg.sender, receiver, amount, message, block.timestamp, keyword));\n        emit Transfer(msg.sender, receiver, amount, message, block.timestamp, keyword);\n    }\n\n    function getAllTrans() public view returns (TransferStruct[] memory) {\n        return transactions;\n    }\n\n    function getCountTrans() public view returns (uint256) {\n        return transactionCount;\n    }\n}",
  "sourcePath": "/Users/pratikyadav/projects/uniswap-clone/truffle/contracts/Transaction.sol",
  "compiler": {
    "name": "solc",
    "version": "0.8.13+commit.abaa5c0e.Emscripten.clang"
  },
  "schemaVersion": "3.4.6",
  "updatedAt": "2022-03-31T18:17:04.420Z",
  "networkType": "ethereum",
  "devdoc": {
    "kind": "dev",
    "methods": {},
    "version": 1
  },
  "userdoc": {
    "kind": "user",
    "methods": {},
    "version": 1
  }
}